{
  "contractName": "NFTMarket",
  "abi": [
    {
      "inputs": [],
      "stateMutability": "nonpayable",
      "type": "constructor"
    },
    {
      "anonymous": false,
      "inputs": [
        {
          "indexed": true,
          "internalType": "uint256",
          "name": "itemId",
          "type": "uint256"
        },
        {
          "indexed": true,
          "internalType": "address",
          "name": "nftContract",
          "type": "address"
        },
        {
          "indexed": true,
          "internalType": "uint256",
          "name": "tokenId",
          "type": "uint256"
        },
        {
          "indexed": false,
          "internalType": "address",
          "name": "seller",
          "type": "address"
        },
        {
          "indexed": false,
          "internalType": "address",
          "name": "owner",
          "type": "address"
        },
        {
          "indexed": false,
          "internalType": "uint256",
          "name": "price",
          "type": "uint256"
        },
        {
          "indexed": false,
          "internalType": "bool",
          "name": "sold",
          "type": "bool"
        }
      ],
      "name": "MarketItemCreated",
      "type": "event"
    },
    {
      "inputs": [],
      "name": "getListingPrice",
      "outputs": [
        {
          "internalType": "uint256",
          "name": "",
          "type": "uint256"
        }
      ],
      "stateMutability": "view",
      "type": "function",
      "constant": true
    },
    {
      "inputs": [
        {
          "internalType": "address",
          "name": "nftContract",
          "type": "address"
        },
        {
          "internalType": "uint256",
          "name": "tokenId",
          "type": "uint256"
        },
        {
          "internalType": "uint256",
          "name": "price",
          "type": "uint256"
        }
      ],
      "name": "createMarketItem",
      "outputs": [],
      "stateMutability": "payable",
      "type": "function",
      "payable": true
    },
    {
      "inputs": [
        {
          "internalType": "address",
          "name": "nftContract",
          "type": "address"
        },
        {
          "internalType": "uint256",
          "name": "itemId",
          "type": "uint256"
        }
      ],
      "name": "createMarketSale",
      "outputs": [],
      "stateMutability": "payable",
      "type": "function",
      "payable": true
    },
    {
      "inputs": [],
      "name": "fetchMarketItems",
      "outputs": [
        {
          "components": [
            {
              "internalType": "uint256",
              "name": "itemId",
              "type": "uint256"
            },
            {
              "internalType": "address",
              "name": "nftContract",
              "type": "address"
            },
            {
              "internalType": "uint256",
              "name": "tokenId",
              "type": "uint256"
            },
            {
              "internalType": "address payable",
              "name": "seller",
              "type": "address"
            },
            {
              "internalType": "address payable",
              "name": "owner",
              "type": "address"
            },
            {
              "internalType": "uint256",
              "name": "price",
              "type": "uint256"
            },
            {
              "internalType": "bool",
              "name": "sold",
              "type": "bool"
            }
          ],
          "internalType": "struct NFTMarket.MarketItem[]",
          "name": "",
          "type": "tuple[]"
        }
      ],
      "stateMutability": "view",
      "type": "function",
      "constant": true
    },
    {
      "inputs": [],
      "name": "fetchMyNFTs",
      "outputs": [
        {
          "components": [
            {
              "internalType": "uint256",
              "name": "itemId",
              "type": "uint256"
            },
            {
              "internalType": "address",
              "name": "nftContract",
              "type": "address"
            },
            {
              "internalType": "uint256",
              "name": "tokenId",
              "type": "uint256"
            },
            {
              "internalType": "address payable",
              "name": "seller",
              "type": "address"
            },
            {
              "internalType": "address payable",
              "name": "owner",
              "type": "address"
            },
            {
              "internalType": "uint256",
              "name": "price",
              "type": "uint256"
            },
            {
              "internalType": "bool",
              "name": "sold",
              "type": "bool"
            }
          ],
          "internalType": "struct NFTMarket.MarketItem[]",
          "name": "",
          "type": "tuple[]"
        }
      ],
      "stateMutability": "view",
      "type": "function",
      "constant": true
    },
    {
      "inputs": [],
      "name": "fetchItemsCreated",
      "outputs": [
        {
          "components": [
            {
              "internalType": "uint256",
              "name": "itemId",
              "type": "uint256"
            },
            {
              "internalType": "address",
              "name": "nftContract",
              "type": "address"
            },
            {
              "internalType": "uint256",
              "name": "tokenId",
              "type": "uint256"
            },
            {
              "internalType": "address payable",
              "name": "seller",
              "type": "address"
            },
            {
              "internalType": "address payable",
              "name": "owner",
              "type": "address"
            },
            {
              "internalType": "uint256",
              "name": "price",
              "type": "uint256"
            },
            {
              "internalType": "bool",
              "name": "sold",
              "type": "bool"
            }
          ],
          "internalType": "struct NFTMarket.MarketItem[]",
          "name": "",
          "type": "tuple[]"
        }
      ],
      "stateMutability": "view",
      "type": "function",
      "constant": true
    }
  ],
  "bytecode": "0x60806040526658d15e1762800060045534801561001b57600080fd5b50600160008190555033600360006101000a81548173ffffffffffffffffffffffffffffffffffffffff021916908373ffffffffffffffffffffffffffffffffffffffff1602179055506118b4806100746000396000f3fe6080604052600436106100555760003560e01c80630f08efe01461005a57806312e8558514610085578063202e3740146100b057806358eb2df5146100db578063c23b139e146100f7578063f064c32e14610113575b600080fd5b34801561006657600080fd5b5061006f61013e565b60405161007c919061133c565b60405180910390f35b34801561009157600080fd5b5061009a610407565b6040516100a7919061136d565b60405180910390f35b3480156100bc57600080fd5b506100c5610411565b6040516100d2919061133c565b60405180910390f35b6100f560048036038101906100f091906113e5565b61075d565b005b610111600480360381019061010c9190611438565b610ac0565b005b34801561011f57600080fd5b50610128610d78565b604051610135919061133c565b60405180910390f35b6060600061014c60016110c4565b9050600061015a60026110c4565b61016460016110c4565b61016e91906114a7565b90506000808267ffffffffffffffff81111561018d5761018c6114db565b5b6040519080825280602002602001820160405280156101c657816020015b6101b36110e8565b8152602001906001900390816101ab5790505b50905060005b848110156103fc57600073ffffffffffffffffffffffffffffffffffffffff16600560006001846101fd919061150a565b815260200190815260200160002060040160009054906101000a900473ffffffffffffffffffffffffffffffffffffffff1673ffffffffffffffffffffffffffffffffffffffff16036103e9576000600182610259919061150a565b90506000600560008381526020019081526020016000209050806040518060e0016040529081600082015481526020016001820160009054906101000a900473ffffffffffffffffffffffffffffffffffffffff1673ffffffffffffffffffffffffffffffffffffffff1673ffffffffffffffffffffffffffffffffffffffff168152602001600282015481526020016003820160009054906101000a900473ffffffffffffffffffffffffffffffffffffffff1673ffffffffffffffffffffffffffffffffffffffff1673ffffffffffffffffffffffffffffffffffffffff1681526020016004820160009054906101000a900473ffffffffffffffffffffffffffffffffffffffff1673ffffffffffffffffffffffffffffffffffffffff1673ffffffffffffffffffffffffffffffffffffffff168152602001600582015481526020016006820160009054906101000a900460ff1615151515815250508486815181106103cc576103cb611560565b5b60200260200101819052506001856103e4919061150a565b945050505b80806103f49061158f565b9150506101cc565b508094505050505090565b6000600454905090565b6060600061041f60016110c4565b905060008060005b838110156104c7573373ffffffffffffffffffffffffffffffffffffffff1660056000600184610457919061150a565b815260200190815260200160002060040160009054906101000a900473ffffffffffffffffffffffffffffffffffffffff1673ffffffffffffffffffffffffffffffffffffffff16036104b4576001836104b1919061150a565b92505b80806104bf9061158f565b915050610427565b5060008267ffffffffffffffff8111156104e4576104e36114db565b5b60405190808252806020026020018201604052801561051d57816020015b61050a6110e8565b8152602001906001900390816105025790505b50905060005b84811015610752573373ffffffffffffffffffffffffffffffffffffffff1660056000600184610553919061150a565b815260200190815260200160002060040160009054906101000a900473ffffffffffffffffffffffffffffffffffffffff1673ffffffffffffffffffffffffffffffffffffffff160361073f5760006001826105af919061150a565b90506000600560008381526020019081526020016000209050806040518060e0016040529081600082015481526020016001820160009054906101000a900473ffffffffffffffffffffffffffffffffffffffff1673ffffffffffffffffffffffffffffffffffffffff1673ffffffffffffffffffffffffffffffffffffffff168152602001600282015481526020016003820160009054906101000a900473ffffffffffffffffffffffffffffffffffffffff1673ffffffffffffffffffffffffffffffffffffffff1673ffffffffffffffffffffffffffffffffffffffff1681526020016004820160009054906101000a900473ffffffffffffffffffffffffffffffffffffffff1673ffffffffffffffffffffffffffffffffffffffff1673ffffffffffffffffffffffffffffffffffffffff168152602001600582015481526020016006820160009054906101000a900460ff16151515158152505084868151811061072257610721611560565b5b602002602001018190525060018561073a919061150a565b945050505b808061074a9061158f565b915050610523565b508094505050505090565b6002600054036107a2576040517f08c379a000000000000000000000000000000000000000000000000000000000815260040161079990611634565b60405180910390fd5b6002600081905550600081116107ed576040517f08c379a00000000000000000000000000000000000000000000000000000000081526004016107e4906116a0565b60405180910390fd5b6004543414610831576040517f08c379a000000000000000000000000000000000000000000000000000000000815260040161082890611732565b60405180910390fd5b61083b60016110d2565b600061084760016110c4565b90506040518060e001604052808281526020018573ffffffffffffffffffffffffffffffffffffffff1681526020018481526020013373ffffffffffffffffffffffffffffffffffffffff168152602001600073ffffffffffffffffffffffffffffffffffffffff16815260200183815260200160001515815250600560008381526020019081526020016000206000820151816000015560208201518160010160006101000a81548173ffffffffffffffffffffffffffffffffffffffff021916908373ffffffffffffffffffffffffffffffffffffffff1602179055506040820151816002015560608201518160030160006101000a81548173ffffffffffffffffffffffffffffffffffffffff021916908373ffffffffffffffffffffffffffffffffffffffff16021790555060808201518160040160006101000a81548173ffffffffffffffffffffffffffffffffffffffff021916908373ffffffffffffffffffffffffffffffffffffffff16021790555060a0820151816005015560c08201518160060160006101000a81548160ff0219169083151502179055509050508373ffffffffffffffffffffffffffffffffffffffff166323b872dd3330866040518463ffffffff1660e01b8152600401610a2893929190611761565b600060405180830381600087803b158015610a4257600080fd5b505af1158015610a56573d6000803e3d6000fd5b50505050828473ffffffffffffffffffffffffffffffffffffffff16827f045dfa01dcba2b36aba1d3dc4a874f4b0c5d2fbeb8d2c4b34a7d88c8d8f929d1336000876000604051610aaa94939291906117a7565b60405180910390a4506001600081905550505050565b600260005403610b05576040517f08c379a0000000000000000000000000000000000000000000000000000000008152600401610afc90611634565b60405180910390fd5b6002600081905550600060056000838152602001908152602001600020600501549050600060056000848152602001908152602001600020600201549050813414610b85576040517f08c379a0000000000000000000000000000000000000000000000000000000008152600401610b7c9061185e565b60405180910390fd5b6005600084815260200190815260200160002060030160009054906101000a900473ffffffffffffffffffffffffffffffffffffffff1673ffffffffffffffffffffffffffffffffffffffff166108fc349081150290604051600060405180830381858888f19350505050158015610c01573d6000803e3d6000fd5b508373ffffffffffffffffffffffffffffffffffffffff166323b872dd3033846040518463ffffffff1660e01b8152600401610c3f93929190611761565b600060405180830381600087803b158015610c5957600080fd5b505af1158015610c6d573d6000803e3d6000fd5b50505050336005600085815260200190815260200160002060040160006101000a81548173ffffffffffffffffffffffffffffffffffffffff021916908373ffffffffffffffffffffffffffffffffffffffff16021790555060016005600085815260200190815260200160002060060160006101000a81548160ff021916908315150217905550610cff60026110d2565b600360009054906101000a900473ffffffffffffffffffffffffffffffffffffffff1673ffffffffffffffffffffffffffffffffffffffff166108fc6004549081150290604051600060405180830381858888f19350505050158015610d69573d6000803e3d6000fd5b50505060016000819055505050565b60606000610d8660016110c4565b905060008060005b83811015610e2e573373ffffffffffffffffffffffffffffffffffffffff1660056000600184610dbe919061150a565b815260200190815260200160002060030160009054906101000a900473ffffffffffffffffffffffffffffffffffffffff1673ffffffffffffffffffffffffffffffffffffffff1603610e1b57600183610e18919061150a565b92505b8080610e269061158f565b915050610d8e565b5060008267ffffffffffffffff811115610e4b57610e4a6114db565b5b604051908082528060200260200182016040528015610e8457816020015b610e716110e8565b815260200190600190039081610e695790505b50905060005b848110156110b9573373ffffffffffffffffffffffffffffffffffffffff1660056000600184610eba919061150a565b815260200190815260200160002060030160009054906101000a900473ffffffffffffffffffffffffffffffffffffffff1673ffffffffffffffffffffffffffffffffffffffff16036110a6576000600182610f16919061150a565b90506000600560008381526020019081526020016000209050806040518060e0016040529081600082015481526020016001820160009054906101000a900473ffffffffffffffffffffffffffffffffffffffff1673ffffffffffffffffffffffffffffffffffffffff1673ffffffffffffffffffffffffffffffffffffffff168152602001600282015481526020016003820160009054906101000a900473ffffffffffffffffffffffffffffffffffffffff1673ffffffffffffffffffffffffffffffffffffffff1673ffffffffffffffffffffffffffffffffffffffff1681526020016004820160009054906101000a900473ffffffffffffffffffffffffffffffffffffffff1673ffffffffffffffffffffffffffffffffffffffff1673ffffffffffffffffffffffffffffffffffffffff168152602001600582015481526020016006820160009054906101000a900460ff16151515158152505084868151811061108957611088611560565b5b60200260200101819052506001856110a1919061150a565b945050505b80806110b19061158f565b915050610e8a565b508094505050505090565b600081600001549050919050565b6001816000016000828254019250508190555050565b6040518060e0016040528060008152602001600073ffffffffffffffffffffffffffffffffffffffff16815260200160008152602001600073ffffffffffffffffffffffffffffffffffffffff168152602001600073ffffffffffffffffffffffffffffffffffffffff168152602001600081526020016000151581525090565b600081519050919050565b600082825260208201905092915050565b6000819050602082019050919050565b6000819050919050565b6111a881611195565b82525050565b600073ffffffffffffffffffffffffffffffffffffffff82169050919050565b60006111d9826111ae565b9050919050565b6111e9816111ce565b82525050565b60006111fa826111ae565b9050919050565b61120a816111ef565b82525050565b60008115159050919050565b61122581611210565b82525050565b60e082016000820151611241600085018261119f565b50602082015161125460208501826111e0565b506040820151611267604085018261119f565b50606082015161127a6060850182611201565b50608082015161128d6080850182611201565b5060a08201516112a060a085018261119f565b5060c08201516112b360c085018261121c565b50505050565b60006112c5838361122b565b60e08301905092915050565b6000602082019050919050565b60006112e982611169565b6112f38185611174565b93506112fe83611185565b8060005b8381101561132f57815161131688826112b9565b9750611321836112d1565b925050600181019050611302565b5085935050505092915050565b6000602082019050818103600083015261135681846112de565b905092915050565b61136781611195565b82525050565b6000602082019050611382600083018461135e565b92915050565b600080fd5b611396816111ce565b81146113a157600080fd5b50565b6000813590506113b38161138d565b92915050565b6113c281611195565b81146113cd57600080fd5b50565b6000813590506113df816113b9565b92915050565b6000806000606084860312156113fe576113fd611388565b5b600061140c868287016113a4565b935050602061141d868287016113d0565b925050604061142e868287016113d0565b9150509250925092565b6000806040838503121561144f5761144e611388565b5b600061145d858286016113a4565b925050602061146e858286016113d0565b9150509250929050565b7f4e487b7100000000000000000000000000000000000000000000000000000000600052601160045260246000fd5b60006114b282611195565b91506114bd83611195565b9250828210156114d0576114cf611478565b5b828203905092915050565b7f4e487b7100000000000000000000000000000000000000000000000000000000600052604160045260246000fd5b600061151582611195565b915061152083611195565b9250827fffffffffffffffffffffffffffffffffffffffffffffffffffffffffffffffff0382111561155557611554611478565b5b828201905092915050565b7f4e487b7100000000000000000000000000000000000000000000000000000000600052603260045260246000fd5b600061159a82611195565b91507fffffffffffffffffffffffffffffffffffffffffffffffffffffffffffffffff82036115cc576115cb611478565b5b600182019050919050565b600082825260208201905092915050565b7f5265656e7472616e637947756172643a207265656e7472616e742063616c6c00600082015250565b600061161e601f836115d7565b9150611629826115e8565b602082019050919050565b6000602082019050818103600083015261164d81611611565b9050919050565b7f5072696365206d757374206265206174206c6561737420312077656900000000600082015250565b600061168a601c836115d7565b915061169582611654565b602082019050919050565b600060208201905081810360008301526116b98161167d565b9050919050565b7f5072696365206d75737420626520657175616c20746f206c697374696e67207060008201527f7269636500000000000000000000000000000000000000000000000000000000602082015250565b600061171c6024836115d7565b9150611727826116c0565b604082019050919050565b6000602082019050818103600083015261174b8161170f565b9050919050565b61175b816111ce565b82525050565b60006060820190506117766000830186611752565b6117836020830185611752565b611790604083018461135e565b949350505050565b6117a181611210565b82525050565b60006080820190506117bc6000830187611752565b6117c96020830186611752565b6117d6604083018561135e565b6117e36060830184611798565b95945050505050565b7f506c65617365207375626d6974207468652061736b696e67207072696365206960008201527f6e206f7264657220746f20636f6d706c65746520746865207075726368617365602082015250565b60006118486040836115d7565b9150611853826117ec565b604082019050919050565b600060208201905081810360008301526118778161183b565b905091905056fea2646970667358221220a53a68dcaa5cbf997ba0fe77f62fc99eabd79e611077d0e500b0045bb1e9067c64736f6c634300080d0033",
  "immutableReferences": {},
  "source": "// SPDX-License-Identifier: MIT OR Apache-2.0\npragma solidity ^0.8.3;\n\nimport '@openzeppelin/contracts/utils/Counters.sol';\nimport '@openzeppelin/contracts/security/ReentrancyGuard.sol';\nimport '@openzeppelin/contracts/token/ERC721/ERC721.sol';\n\ncontract NFTMarket is ReentrancyGuard {\n  using Counters for Counters.Counter;\n  Counters.Counter private _itemIds;\n  Counters.Counter private _itemsSold;\n\n  address payable owner;\n  uint256 listingPrice = 0.025 ether;\n\n  constructor() {\n    owner = payable(msg.sender);\n  }\n\n  struct MarketItem {\n    uint256 itemId;\n    address nftContract;\n    uint256 tokenId;\n    address payable seller;\n    address payable owner;\n    uint256 price;\n    bool sold;\n  }\n\n  mapping(uint256 => MarketItem) private idToMarketItem;\n\n  event MarketItemCreated(\n    uint256 indexed itemId,\n    address indexed nftContract,\n    uint256 indexed tokenId,\n    address seller,\n    address owner,\n    uint256 price,\n    bool sold\n  );\n\n  /* Returns the listing price of the contract */\n  function getListingPrice() public view returns (uint256) {\n    return listingPrice;\n  }\n\n  /* Places an item for sale on the marketplace */\n  function createMarketItem(\n    address nftContract, // nft\n    uint256 tokenId, // tokenId\n    uint256 price // \n  ) public payable nonReentrant {\n    require(price > 0, 'Price must be at least 1 wei');\n    require(msg.value == listingPrice, 'Price must be equal to listing price');\n\n    _itemIds.increment();\n    uint256 itemId = _itemIds.current(); //  itemId\n\n    idToMarketItem[itemId] = MarketItem(\n      itemId,\n      nftContract,\n      tokenId,\n      payable(msg.sender),\n      payable(address(0)), //  owner = 0 \n      price,\n      false // \n    );\n\n    IERC721(nftContract).transferFrom(msg.sender, address(this), tokenId); // \n\n    emit MarketItemCreated(itemId, nftContract, tokenId, msg.sender, address(0), price, false);\n  }\n\n  /* Creates the sale of a marketplace item */\n  /* Transfers ownership of the item, as well as funds between parties */\n  function createMarketSale(address nftContract, uint256 itemId) public payable nonReentrant {\n    uint256 price = idToMarketItem[itemId].price;\n    uint256 tokenId = idToMarketItem[itemId].tokenId;\n    require(msg.value == price, 'Please submit the asking price in order to complete the purchase');\n\n    idToMarketItem[itemId].seller.transfer(msg.value);\n    IERC721(nftContract).transferFrom(address(this), msg.sender, tokenId);\n    idToMarketItem[itemId].owner = payable(msg.sender);\n    idToMarketItem[itemId].sold = true;\n    _itemsSold.increment();\n    payable(owner).transfer(listingPrice);\n  }\n\n  /* Returns all unsold market items */\n  function fetchMarketItems() public view returns (MarketItem[] memory) {\n    uint256 itemCount = _itemIds.current();\n    uint256 unsoldItemCount = _itemIds.current() - _itemsSold.current();\n    uint256 currentIndex = 0;\n\n    MarketItem[] memory items = new MarketItem[](unsoldItemCount);\n    for (uint256 i = 0; i < itemCount; i++) {\n      if (idToMarketItem[i + 1].owner == address(0)) {\n        uint256 currentId = i + 1;\n        MarketItem storage currentItem = idToMarketItem[currentId];\n        items[currentIndex] = currentItem;\n        currentIndex += 1;\n      }\n    }\n    return items;\n  }\n\n  /* Returns onlyl items that a user has purchased */\n  function fetchMyNFTs() public view returns (MarketItem[] memory) {\n    uint256 totalItemCount = _itemIds.current();\n    uint256 itemCount = 0;\n    uint256 currentIndex = 0;\n\n    for (uint256 i = 0; i < totalItemCount; i++) {\n      if (idToMarketItem[i + 1].owner == msg.sender) {\n        itemCount += 1;\n      }\n    }\n\n    MarketItem[] memory items = new MarketItem[](itemCount);\n    for (uint256 i = 0; i < totalItemCount; i++) {\n      if (idToMarketItem[i + 1].owner == msg.sender) {\n        uint256 currentId = i + 1;\n        MarketItem storage currentItem = idToMarketItem[currentId];\n        items[currentIndex] = currentItem;\n        currentIndex += 1;\n      }\n    }\n    return items;\n  }\n\n  /* Returns only items a user has created */\n  function fetchItemsCreated() public view returns (MarketItem[] memory) {\n    uint256 totalItemCount = _itemIds.current();\n    uint256 itemCount = 0;\n    uint256 currentIndex = 0;\n\n    for (uint256 i = 0; i < totalItemCount; i++) {\n      if (idToMarketItem[i + 1].seller == msg.sender) {\n        itemCount += 1;\n      }\n    }\n\n    MarketItem[] memory items = new MarketItem[](itemCount);\n    for (uint256 i = 0; i < totalItemCount; i++) {\n      if (idToMarketItem[i + 1].seller == msg.sender) {\n        uint256 currentId = i + 1;\n        MarketItem storage currentItem = idToMarketItem[currentId];\n        items[currentIndex] = currentItem;\n        currentIndex += 1;\n      }\n    }\n    return items;\n  }\n}\n",
  "sourcePath": "/mnt/f/code/medal/src/contracts/NFTMarket.sol",
  "compiler": {
    "name": "solc",
    "version": "0.8.13+commit.abaa5c0e.Emscripten.clang"
  },
  "schemaVersion": "3.4.7",
  "updatedAt": "2022-05-14T02:27:36.119Z",
  "networkType": "ethereum",
  "devdoc": {
    "kind": "dev",
    "methods": {},
    "version": 1
  },
  "userdoc": {
    "kind": "user",
    "methods": {},
    "version": 1
  }
}